:100000000C9435000C945D000C945D000C945D0024
:100010000C945D000C945D000C945D000C945D00EC
:100020000C945D000C945D000C945D000C945D00DC
:100030000C945D000C945D000C945D000C945D00CC
:100040000C94F2010C945D000C94B8010C947D01A9
:100050000C945D000C945D000C945D000C945D00AC
:100060000C945D000C945D006E0211241FBECFEF56
:10007000D8E0DEBFCDBF11E0A0E0B1E0EEEDFCE0E6
:1000800002C005900D92A831B107D9F721E0A8E18F
:10009000B1E001C01D92A03EB207E1F710E0C5E358
:1000A000D0E004C02197FE010E946506C433D10749
:1000B000C9F70E94A9020C9446050C940000CF9247
:1000C000DF92EF92FF920F931F93CF93DF936C0118
:1000D000EB017B01E40EF51E00E010E0CE15DF051C
:1000E00061F06991D601ED91FC910190F081E02DD4
:1000F000C6010995080F191FF1CFC801DF91CF91F3
:100100001F910F91FF90EF90DF90CF900895089589
:100110000F931F93CF93DF93FC01A685B7858D01C5
:10012000005C1F4FE8018881998101968F739927A0
:10013000AD014E5B5F4FEA012881398128173907ED
:10014000D1F3E80128813981A20FB31F6C93A685F2
:10015000B785A05CBF4F11969C938E93A689B789F3
:100160002C9181E090E0078C02C0880F991F0A94BF
:10017000E2F7822B8C9381E081A30488F589E02D3E
:1001800080818064808381E090E0DF91CF911F9136
:100190000F910895FC0181A1882329F0A489B589D4
:1001A0008C9186FFFBCF11A20895FC01A485B58533
:1001B000FD01E05CFF4F2081318132968081918189
:1001C0002817390779F080819181A80FB91F8C9188
:1001D000208131812F5F3F4F2F733327318320835D
:1001E00090E008958FEF9FEF0895DC011C96ED914C
:1001F000FC911D97DF01A05CBF4F2D913C911197A1
:1002000012968D919C9111972817390739F08D918D
:100210009C91E80FF91F808190E008958FEF9FEF88
:100220000895FC0124853585F901E05CFF4F80814C
:100230009181329620813181821B930B8F73992794
:10024000089581EB91E00C9411013FB7F8948091EF
:100250001D0190911E01A0911F01B091200126B5B2
:10026000A89B05C02F3F19F00196A11DB11D3FBFEE
:10027000BA2FA92F982F8827820F911DA11DB11D7C
:10028000BC01CD0142E0660F771F881F991F4A9578
:10029000D1F70895CF93DF93EC018091D301909132
:1002A000D401009739F02091D5013091D6012C1757
:1002B0003D07B8F4BE016F5F7F4F0E94490500976C
:1002C00091F09093D4018093D301D093D601C09341
:1002D000D5012091D7013091D801232B11F4FC01D5
:1002E000108281E001C080E0DF91CF91089580917C
:1002F000D3019091D4010C94BD041F920F920FB6BC
:100300000F9211242F933F938F939F93EF93FF931B
:100310002091690130916A0180916B0190916C018B
:100320002817390731F48091C1008F7D8093C10077
:1003300014C0E0916B01F0916C01E75DFE4F2081EC
:1003400080916B0190916C0101968F739927909326
:100350006C0180936B012093C600FF91EF919F91F8
:100360008F913F912F910F900FBE0F901F90189576
:100370001F920F920FB60F9211242F934F935F93FA
:100380008F939F93EF93FF938091C00082FD1CC0D9
:100390002091C6008091AD019091AE014091AF01D6
:1003A0005091B00101968F7399274817590771F042
:1003B000E091AD01F091AE01E359FE4F208390939F
:1003C000AE018093AD0102C08091C600FF91EF9114
:1003D0009F918F915F914F912F910F900FBE0F9032
:1003E0001F9018951F920F920FB60F9211242F9302
:1003F0003F938F939F93AF93BF93809119019091F7
:100400001A01A0911B01B0911C013091180123E049
:10041000230F2D3720F40196A11DB11D05C026E83C
:10042000230F0296A11DB11D20931801809319017D
:1004300090931A01A0931B01B0931C0180911D01A0
:1004400090911E01A0911F01B09120010196A11D64
:10045000B11D80931D0190931E01A0931F01B093C5
:100460002001BF91AF919F918F913F912F910F905C
:100470000FBE0F901F901895A091DA01B091DB018B
:10048000109769F0ED91FC91119712968D919C91C6
:1004900013979093DB018093DA010995EDCF0895CE
:1004A000CF93DF93EC0184E090E00E942504009755
:1004B00081F0FC01D183C0832091DA013091DB010E
:1004C000338322839093DB018093DA0180E090E014
:1004D00002C081E090E0DF91CF910895E1EBF1E07F
:1004E0001382128288EE93E0A0E0B0E084839583CB
:1004F000A683B7838AE091E0918380838DE691E0C3
:100500009587848789E291E09787868785EC90E0DC
:10051000918B808B84EC90E0938B828B80EC90E0CD
:10052000958B848B81EC90E0978B868B82EC90E0AE
:10053000918F808F86EC90E0938F828F84E0848F00
:1005400083E0858F87E0868F85E0878F81E080A3B9
:100550000895CF93DF93CDB7DEB72A970FB6F894FF
:10056000DEBF0FBECDBF789484B5826084BD84B5F4
:10057000816084BD85B5826085BD85B5816085BD9E
:1005800080916E00816080936E0010928100809156
:1005900081008260809381008091810081608093DE
:1005A0008100809180008160809380008091B10003
:1005B00084608093B1008091B00081608093B0002E
:1005C00080917A00846080937A0080917A008260C2
:1005D00080937A0080917A00816080937A00809184
:1005E0007A00806880937A001092C100E091C50182
:1005F000F091C60181E090E09C010090D10102C021
:10060000220F331F0A94E2F72083E091C101F09199
:10061000C2011082E091C301F091C4012FEC20834C
:100620001092D201E091C701F091C80140819C0174
:100630000090CD0102C0220F331F0A94E2F7242B51
:100640002083E091C701F091C80140819C01009096
:10065000CE0102C0220F331F0A94E2F7242B20831D
:10066000E091C701F091C80140819C010090CF0149
:1006700002C0220F331F0A94E2F7242B2083E0915B
:10068000C701F091C80120810090D00102C0880FFD
:10069000991F0A94E2F7809582238083DD24D39406
:1006A000CE0101967C018091210181113AC0109206
:1006B000D4011092D3011092D6011092D50110925C
:1006C000D8011092D7011092D90180E090E00E94E9
:1006D0004A012091D3013091D401811113C0211519
:1006E000310519F0C9010E94BD041092D401109285
:1006F000D3011092D8011092D7011092D601109216
:10070000D50109C01092D8011092D70166E171E0BD
:10071000C9010E941806D092210187E791E00E944A
:10072000500281EB91E00E941101892B09F48AC0EB
:100730000E9425018B018AE0882E912CA12CB12CDE
:100740000E942501601B710B683E7340C8F381E075
:10075000881A9108A108B10808511C4F811491040E
:10076000A104B10469F781EB91E00E94D5000091EA
:10077000D7011091D8018A30E1F089831A820F5F86
:100780001F4FC8010E944A01882309F45BC02091D1
:10079000D3013091D4018091D7019091D801B70154
:1007A000820F931F0E9418061093D8010093D7015F
:1007B00049C00115110511F4198211C00930110544
:1007C00010F009E010E06091D3017091D401A8010C
:1007D000C7010E941F06F701E00FF11F1082F70109
:1007E00001900020E9F73197AF014E195F09B70179
:1007F00081EB91E00E945F0080E090E00E944A015E
:100800002091D3013091D401811113C021153105FC
:1008100019F0C9010E94BD041092D4011092D301B5
:100820001092D8011092D7011092D6011092D501E2
:1008300009C01092D8011092D70166E171E0C90198
:100840000E9418060E9421012ECF0F931F93CF9371
:10085000DF938230910510F482E090E0E091DE01B8
:10086000F091DF0120E030E0A0E0B0E0309719F136
:10087000408151810281138148175907C8F08417BC
:10088000950769F4109731F012960C93129713960E
:100890001C9327C00093DE011093DF0122C02115B5
:1008A000310519F04217530718F49A01BD01EF0101
:1008B000DF01F801DBCF21153105F9F0281B390BD9
:1008C0002430310580F48A819B816115710521F006
:1008D000FB019383828304C09093DF018093DE0148
:1008E000FE01329644C0FE01E20FF31F8193919303
:1008F00022503109398328833AC02091DC0130919C
:10090000DD01232B41F4209102013091030130934A
:10091000DD012093DC0120910001309101012115BE
:10092000310541F42DB73EB74091040150910501C6
:10093000241B350BE091DC01F091DD01E217F30798
:10094000A0F42E1B3F0B2817390778F0AC014E5F3F
:100950005F4F2417350748F04E0F5F1F5093DD019E
:100960004093DC018193919302C0E0E0F0E0CF017D
:10097000DF91CF911F910F910895CF93DF9300974F
:1009800009F481C0FC01329713821282A091DE012A
:10099000B091DF01109781F420813181820F931F84
:1009A0002091DC013091DD012817390751F5F093D2
:1009B000DD01E093DC0167C0ED0120E030E0CE17FF
:1009C000DF0740F44A815B819E0141155105F1F03A
:1009D000EA01F5CFD383C28340815181840F951FF3
:1009E000C817D90759F488819981840F951F0296F9
:1009F000918380838A819B81938382832115310532
:100A000029F4F093DF01E093DE013DC0E901FB83AF
:100A1000EA8349915991C40FD51FEC17FD0761F482
:100A200080819181840F951F0296E90199838883C3
:100A3000828193819B838A83E0E0F0E012968D911E
:100A40009C911397009719F0FD01DC01F7CF8D9170
:100A50009C9111979D012E5F3F4F820F931F209114
:100A6000DC013091DD012817390769F4309729F44A
:100A70001092DF011092DE0102C013821282B09345
:100A8000DD01A093DC01DF91CF910895F8940C94DF
:100A90006B06A0E0B0E0EFE4F5E00C943206EC0168
:100AA000009721F4CB010E942504B4C0FC01E60F9D
:100AB000F71F9C0122503109E217F30708F4A8C080
:100AC000D9010D911C91119706171707B0F0053049
:100AD000110508F49BC0C80104978617970708F40E
:100AE00095C002501109061B170B019311936D93CA
:100AF0007C93CF010E94BD0489C05B01A01AB10A9A
:100B00004C01800E911EA091DE01B091DF01612C9D
:100B1000712CE12CF12C109709F446C08D919C9119
:100B20001197A815B905B1F56C0142E0C40ED11CAE
:100B3000CA14DB0478F14C018A189B08640142E076
:100B4000C40ED11C1296BC9012971396AC91B5E0CE
:100B5000CB16D10440F0B282A38391828082D90166
:100B60006D937C9309C00E5F1F4F800F911FF90199
:100B700091838083EB2DFA2FE114F10431F0D7013A
:100B80001396FC93EE93129741C0F093DF01E0932C
:100B9000DE013CC06816790608F43C017D0112961E
:100BA0000D90BC91A02DB7CF8091DC019091DD011B
:100BB00088169906E1F466167706C8F4809100015C
:100BC00090910101009741F48DB79EB740910401C7
:100BD00050910501841B950BE817F907C8F4F093B1
:100BE000DD01E093DC01F901718360830FC0CB016B
:100BF0000E9425047C01009759F0A801BE010E94C3
:100C00000F06CE010E94BD04C70104C0CE0102C080
:100C100080E090E0CDB7DEB7EEE00C944E06FB012D
:100C2000DC0102C001900D9241505040D8F7089568
:100C3000FB01DC0101900D920020E1F70895FB011A
:100C4000DC014150504048F001900D920020C9F75E
:100C500001C01D9241505040E0F708952F923F92FD
:100C60004F925F926F927F928F929F92AF92BF92BC
:100C7000CF92DF92EF92FF920F931F93CF93DF9368
:100C8000CDB7DEB7CA1BDB0B0FB6F894DEBF0FBEC5
:100C9000CDBF09942A88398848885F846E847D8412
:100CA0008C849B84AA84B984C884DF80EE80FD8014
:100CB0000C811B81AA81B981CE0FD11D0FB6F8948A
:100CC000DEBF0FBECDBFED010895EE0FFF1F0590F3
:0E0CD000F491E02D09940E943C02F894FFCFAD
:100CDE000000E00120000000000088005F0011010C
:080CEE00D500F500CA0000006A
:00000001FF
